{
  "_format": "hh-sol-artifact-1",
  "contractName": "ToDo",
  "sourceName": "contracts/ToDo.sol",
  "abi": [
    {
      "inputs": [
        {
          "internalType": "uint256",
          "name": "id",
          "type": "uint256"
        },
        {
          "internalType": "string",
          "name": "_title",
          "type": "string"
        },
        {
          "internalType": "string",
          "name": "_description",
          "type": "string"
        }
      ],
      "name": "addTask",
      "outputs": [],
      "stateMutability": "nonpayable",
      "type": "function"
    },
    {
      "inputs": [
        {
          "internalType": "uint256",
          "name": "_id",
          "type": "uint256"
        }
      ],
      "name": "deleteTask",
      "outputs": [],
      "stateMutability": "nonpayable",
      "type": "function"
    },
    {
      "inputs": [],
      "name": "getTask",
      "outputs": [
        {
          "components": [
            {
              "internalType": "uint256",
              "name": "id",
              "type": "uint256"
            },
            {
              "internalType": "address",
              "name": "myAddr",
              "type": "address"
            },
            {
              "internalType": "string",
              "name": "title",
              "type": "string"
            },
            {
              "internalType": "string",
              "name": "description",
              "type": "string"
            }
          ],
          "internalType": "struct ToDo.List[]",
          "name": "",
          "type": "tuple[]"
        }
      ],
      "stateMutability": "view",
      "type": "function"
    },
    {
      "inputs": [
        {
          "internalType": "uint256",
          "name": "",
          "type": "uint256"
        }
      ],
      "name": "lists",
      "outputs": [
        {
          "internalType": "uint256",
          "name": "id",
          "type": "uint256"
        },
        {
          "internalType": "address",
          "name": "myAddr",
          "type": "address"
        },
        {
          "internalType": "string",
          "name": "title",
          "type": "string"
        },
        {
          "internalType": "string",
          "name": "description",
          "type": "string"
        }
      ],
      "stateMutability": "view",
      "type": "function"
    }
  ],
  "bytecode": "0x608060405234801561001057600080fd5b50610e6a806100206000396000f3fe608060405234801561001057600080fd5b506004361061004c5760003560e01c8063560f31921461005157806396102cf41461006d578063a31662d2146100a0578063fb8820c2146100be575b600080fd5b61006b6004803603810190610066919061086f565b6100da565b005b6100876004803603810190610082919061086f565b6102c8565b6040516100979493929190610b1d565b60405180910390f35b6100a8610438565b6040516100b59190610adb565b60405180910390f35b6100d860048036038101906100d39190610898565b61061b565b005b60005b6000805490508110156102c4578160008281548110610125577f4e487b7100000000000000000000000000000000000000000000000000000000600052603260045260246000fd5b90600052602060002090600402016000015414156102b15760008181548110610177577f4e487b7100000000000000000000000000000000000000000000000000000000600052603260045260246000fd5b906000526020600020906004020160010160009054906101000a900473ffffffffffffffffffffffffffffffffffffffff1673ffffffffffffffffffffffffffffffffffffffff163373ffffffffffffffffffffffffffffffffffffffff1614610216576040517f08c379a000000000000000000000000000000000000000000000000000000000815260040161020d90610afd565b60405180910390fd5b60008181548110610250577f4e487b7100000000000000000000000000000000000000000000000000000000600052603260045260246000fd5b90600052602060002090600402016000808201600090556001820160006101000a81549073ffffffffffffffffffffffffffffffffffffffff021916905560028201600061029e919061070f565b6003820160006102ae919061070f565b50505b80806102bc90610d0d565b9150506100dd565b5050565b600081815481106102d857600080fd5b90600052602060002090600402016000915090508060000154908060010160009054906101000a900473ffffffffffffffffffffffffffffffffffffffff169080600201805461032790610caa565b80601f016020809104026020016040519081016040528092919081815260200182805461035390610caa565b80156103a05780601f10610375576101008083540402835291602001916103a0565b820191906000526020600020905b81548152906001019060200180831161038357829003601f168201915b5050505050908060030180546103b590610caa565b80601f01602080910402602001604051908101604052809291908181526020018280546103e190610caa565b801561042e5780601f106104035761010080835404028352916020019161042e565b820191906000526020600020905b81548152906001019060200180831161041157829003601f168201915b5050505050905084565b60606000805480602002602001604051908101604052809291908181526020016000905b828210156106125783829060005260206000209060040201604051806080016040529081600082015481526020016001820160009054906101000a900473ffffffffffffffffffffffffffffffffffffffff1673ffffffffffffffffffffffffffffffffffffffff1673ffffffffffffffffffffffffffffffffffffffff1681526020016002820180546104ef90610caa565b80601f016020809104026020016040519081016040528092919081815260200182805461051b90610caa565b80156105685780601f1061053d57610100808354040283529160200191610568565b820191906000526020600020905b81548152906001019060200180831161054b57829003601f168201915b5050505050815260200160038201805461058190610caa565b80601f01602080910402602001604051908101604052809291908181526020018280546105ad90610caa565b80156105fa5780601f106105cf576101008083540402835291602001916105fa565b820191906000526020600020905b8154815290600101906020018083116105dd57829003601f168201915b5050505050815250508152602001906001019061045c565b50505050905090565b600060405180608001604052808581526020013373ffffffffffffffffffffffffffffffffffffffff1681526020018481526020018381525090806001815401808255809150506001900390600052602060002090600402016000909190919091506000820151816000015560208201518160010160006101000a81548173ffffffffffffffffffffffffffffffffffffffff021916908373ffffffffffffffffffffffffffffffffffffffff16021790555060408201518160020190805190602001906106ea92919061074f565b50606082015181600301908051906020019061070792919061074f565b505050505050565b50805461071b90610caa565b6000825580601f1061072d575061074c565b601f01602090049060005260206000209081019061074b91906107d5565b5b50565b82805461075b90610caa565b90600052602060002090601f01602090048101928261077d57600085556107c4565b82601f1061079657805160ff19168380011785556107c4565b828001600101855582156107c4579182015b828111156107c35782518255916020019190600101906107a8565b5b5090506107d191906107d5565b5090565b5b808211156107ee5760008160009055506001016107d6565b5090565b600061080561080084610b95565b610b70565b90508281526020810184848401111561081d57600080fd5b610828848285610c68565b509392505050565b600082601f83011261084157600080fd5b81356108518482602086016107f2565b91505092915050565b60008135905061086981610e1d565b92915050565b60006020828403121561088157600080fd5b600061088f8482850161085a565b91505092915050565b6000806000606084860312156108ad57600080fd5b60006108bb8682870161085a565b935050602084013567ffffffffffffffff8111156108d857600080fd5b6108e486828701610830565b925050604084013567ffffffffffffffff81111561090157600080fd5b61090d86828701610830565b9150509250925092565b60006109238383610a53565b905092915050565b61093481610c2c565b82525050565b61094381610c2c565b82525050565b600061095482610bd6565b61095e8185610bf9565b93508360208202850161097085610bc6565b8060005b858110156109ac578484038952815161098d8582610917565b945061099883610bec565b925060208a01995050600181019050610974565b50829750879550505050505092915050565b60006109c982610be1565b6109d38185610c0a565b93506109e3818560208601610c77565b6109ec81610de3565b840191505092915050565b6000610a0282610be1565b610a0c8185610c1b565b9350610a1c818560208601610c77565b610a2581610de3565b840191505092915050565b6000610a3d600d83610c1b565b9150610a4882610df4565b602082019050919050565b6000608083016000830151610a6b6000860182610abd565b506020830151610a7e602086018261092b565b5060408301518482036040860152610a9682826109be565b91505060608301518482036060860152610ab082826109be565b9150508091505092915050565b610ac681610c5e565b82525050565b610ad581610c5e565b82525050565b60006020820190508181036000830152610af58184610949565b905092915050565b60006020820190508181036000830152610b1681610a30565b9050919050565b6000608082019050610b326000830187610acc565b610b3f602083018661093a565b8181036040830152610b5181856109f7565b90508181036060830152610b6581846109f7565b905095945050505050565b6000610b7a610b8b565b9050610b868282610cdc565b919050565b6000604051905090565b600067ffffffffffffffff821115610bb057610baf610db4565b5b610bb982610de3565b9050602081019050919050565b6000819050602082019050919050565b600081519050919050565b600081519050919050565b6000602082019050919050565b600082825260208201905092915050565b600082825260208201905092915050565b600082825260208201905092915050565b6000610c3782610c3e565b9050919050565b600073ffffffffffffffffffffffffffffffffffffffff82169050919050565b6000819050919050565b82818337600083830152505050565b60005b83811015610c95578082015181840152602081019050610c7a565b83811115610ca4576000848401525b50505050565b60006002820490506001821680610cc257607f821691505b60208210811415610cd657610cd5610d85565b5b50919050565b610ce582610de3565b810181811067ffffffffffffffff82111715610d0457610d03610db4565b5b80604052505050565b6000610d1882610c5e565b91507fffffffffffffffffffffffffffffffffffffffffffffffffffffffffffffffff821415610d4b57610d4a610d56565b5b600182019050919050565b7f4e487b7100000000000000000000000000000000000000000000000000000000600052601160045260246000fd5b7f4e487b7100000000000000000000000000000000000000000000000000000000600052602260045260246000fd5b7f4e487b7100000000000000000000000000000000000000000000000000000000600052604160045260246000fd5b6000601f19601f8301169050919050565b7f4e6f7420796f7572207461736b00000000000000000000000000000000000000600082015250565b610e2681610c5e565b8114610e3157600080fd5b5056fea2646970667358221220886e5857beb2a83463cf76f29b64b4f817bb143870a8ed763f8d8de40633909564736f6c63430008040033",
  "linkReferences": {},
  "deployedLinkReferences": {}
}